:100000000C9461000C9473000C9473000C947300B6
:100010000C9473000C9473000C9473000C94730094
:100020000C9473000C9473000C9473000C94730084
:100030000C9473000C9473000C9473000C94730074
:100040000C9458010C9473000C9473000C9473007E
:100050000C9473000C9473000C9473000C94730054
:100060000C9473000C947300000000002300260021
:10007000290000000000240027002A0000000000E2
:10008000250028002B0004040404040404040202D4
:100090000202020203030303030301020408102007
:1000A0004080010204081020010204081020000012
:1000B0000008000201000003040700000000000027
:1000C000000011241FBECFEFD8E0DEBFCDBF21E07E
:1000D000A0E0B1E001C01D92A930B207E1F70E9493
:1000E000A2010C9436020C940000833081F028F4B5
:1000F000813099F08230A9F008958730A9F08830D6
:10010000C9F08430B1F4809180008F7D03C080916C
:1001100080008F7780938000089584B58F7784BDA9
:10012000089584B58F7DFBCF8091B0008F77809349
:10013000B00008958091B0008F7DF9CF1F93CF93C9
:10014000DF93282F30E0F901E255FF4F8491F90148
:10015000E656FF4FD491F901EA57FF4FC491CC23E3
:10016000A9F0162F81110E947500EC2FF0E0EE0F20
:10017000FF1FE458FF4FA591B4918FB7F894EC910D
:10018000111108C0D095DE23DC938FBFDF91CF9192
:100190001F910895DE2BF8CFCF93DF9390E0FC0101
:1001A000E656FF4F24918A579F4FFC018491882384
:1001B000D1F090E0880F991FFC01EE58FF4FA591F8
:1001C000B491FC01E458FF4FC591D49161110EC068
:1001D0009FB7F8948C91E22FE0958E238C93288121
:1001E000E223E8839FBFDF91CF9108958FB7F89402
:1001F000EC91E22BEC938FBFF6CF3FB7F894809150
:10020000050190910601A0910701B091080126B562
:10021000A89B05C02F3F19F00196A11DB11D3FBF3E
:10022000BA2FA92F982F8827BC01CD01620F711D0D
:10023000811D911D42E0660F771F881F991F4A9507
:10024000D1F708958F929F92AF92BF92CF92DF9293
:10025000EF92FF920E94FD004B015C0184EFC82EDB
:10026000DD24D394E12CF12C0E94FD00681979095A
:100270008A099B09683E734081059105A8F321E036
:10028000C21AD108E108F10888EE880E83E0981EB2
:10029000A11CB11CC114D104E104F10429F7FF90A1
:1002A000EF90DF90CF90BF90AF909F908F90089588
:1002B0001F920F920FB60F9211242F933F938F939B
:1002C0009F93AF93BF938091010190910201A09100
:1002D0000301B09104013091000123E0230F2D3779
:1002E00058F50196A11DB11D2093000180930101D5
:1002F00090930201A0930301B09304018091050142
:1003000090910601A0910701B09108010196A11DED
:10031000B11D8093050190930601A0930701B0934E
:100320000801BF91AF919F918F913F912F910F90B5
:100330000FBE0F901F90189526E8230F0296A11D5F
:10034000B11DD2CF789484B5826084BD84B58160BC
:1003500084BD85B5826085BD85B5816085BD809190
:100360006E00816080936E00109281008091810008
:100370008260809381008091810081608093810000
:10038000809180008160809380008091B1008460C2
:100390008093B1008091B00081608093B000809123
:1003A0007A00846080937A0080917A0082608093E2
:1003B0007A0080917A00816080937A0080917A003F
:1003C000806880937A001092C10061E08DE00E9405
:1003D000CC0061E08CE00E94CC0060E088E00E94EC
:1003E000CC00C6EBD0E002EA10E09EE8E92E90E0F7
:1003F000F92E20E0C22E20E0D22EFE018491F801D9
:10040000A490F701B490BB2041F181110E947500C6
:10041000EB2DF0E0EE0FFF1FE859FF4FA591B491CF
:100420008C91A822D1F061E08CE00E949E0060E0F7
:100430008DE00E949E000E94220160E08CE00E94FC
:100440009E0061E08DE00E949E000E942201C11486
:10045000D10499F20E940000D0CF60E08CE00E94AD
:100460009E0060E08DE00E949E00F1CFF894FFCFE7
:00000001FF
